{
  "abi": [
    {
      "inputs": [
        {
          "internalType": "address",
          "name": "currencyAddress_",
          "type": "address"
        },
        {
          "internalType": "address",
          "name": "registryAddress_",
          "type": "address"
        },
        {
          "internalType": "string",
          "name": "tokenImageURI_",
          "type": "string"
        },
        {
          "internalType": "address",
          "name": "aclManager_",
          "type": "address"
        },
        {
          "internalType": "address",
          "name": "marketAdmin_",
          "type": "address"
        },
        {
          "internalType": "address",
          "name": "treasuryAdmin_",
          "type": "address"
        }
      ],
      "stateMutability": "nonpayable",
      "type": "constructor"
    },
    {
      "inputs": [],
      "name": "Forbidden",
      "type": "error"
    },
    {
      "inputs": [
        {
          "internalType": "uint256",
          "name": "maxPrice",
          "type": "uint256"
        }
      ],
      "name": "PriceTooHigh",
      "type": "error"
    },
    {
      "inputs": [],
      "name": "PriceTooLow",
      "type": "error"
    },
    {
      "inputs": [
        {
          "internalType": "enum IACLManager.Role",
          "name": "role",
          "type": "uint8"
        }
      ],
      "name": "RoleRequired",
      "type": "error"
    },
    {
      "inputs": [],
      "name": "TokenNotExists",
      "type": "error"
    },
    {
      "inputs": [],
      "name": "Unauthorized",
      "type": "error"
    },
    {
      "inputs": [],
      "name": "ZeroAddress",
      "type": "error"
    },
    {
      "anonymous": false,
      "inputs": [
        {
          "indexed": true,
          "internalType": "enum IACLManager.Role",
          "name": "role",
          "type": "uint8"
        },
        {
          "indexed": true,
          "internalType": "address",
          "name": "prevAccount",
          "type": "address"
        },
        {
          "indexed": true,
          "internalType": "address",
          "name": "newAccount",
          "type": "address"
        }
      ],
      "name": "RoleTransferred",
      "type": "event"
    },
    {
      "inputs": [
        {
          "internalType": "uint256",
          "name": "tokenId_",
          "type": "uint256"
        }
      ],
      "name": "_beforeTransferByRegistry",
      "outputs": [
        {
          "internalType": "bool",
          "name": "success",
          "type": "bool"
        }
      ],
      "stateMutability": "nonpayable",
      "type": "function"
    },
    {
      "inputs": [
        {
          "internalType": "uint256",
          "name": "tokenId_",
          "type": "uint256"
        }
      ],
      "name": "_tokenURI",
      "outputs": [
        {
          "internalType": "string",
          "name": "uri",
          "type": "string"
        }
      ],
      "stateMutability": "view",
      "type": "function"
    },
    {
      "inputs": [
        {
          "internalType": "uint256",
          "name": "tokenId_",
          "type": "uint256"
        },
        {
          "internalType": "uint256",
          "name": "price_",
          "type": "uint256"
        }
      ],
      "name": "bid",
      "outputs": [],
      "stateMutability": "nonpayable",
      "type": "function"
    },
    {
      "inputs": [
        {
          "internalType": "uint256",
          "name": "tokenId_",
          "type": "uint256"
        }
      ],
      "name": "evaluateOwnership",
      "outputs": [
        {
          "internalType": "uint256",
          "name": "collectable",
          "type": "uint256"
        },
        {
          "internalType": "bool",
          "name": "shouldDefault",
          "type": "bool"
        }
      ],
      "stateMutability": "view",
      "type": "function"
    },
    {
      "inputs": [
        {
          "internalType": "uint256",
          "name": "tokenId",
          "type": "uint256"
        }
      ],
      "name": "getColor",
      "outputs": [
        {
          "internalType": "uint256",
          "name": "color",
          "type": "uint256"
        }
      ],
      "stateMutability": "view",
      "type": "function"
    },
    {
      "inputs": [
        {
          "internalType": "uint256",
          "name": "tokenId_",
          "type": "uint256"
        }
      ],
      "name": "getOwner",
      "outputs": [
        {
          "internalType": "address",
          "name": "owner",
          "type": "address"
        }
      ],
      "stateMutability": "view",
      "type": "function"
    },
    {
      "inputs": [
        {
          "internalType": "uint256",
          "name": "tokenId_",
          "type": "uint256"
        }
      ],
      "name": "getPixel",
      "outputs": [
        {
          "components": [
            {
              "internalType": "uint256",
              "name": "tokenId",
              "type": "uint256"
            },
            {
              "internalType": "uint256",
              "name": "price",
              "type": "uint256"
            },
            {
              "internalType": "uint256",
              "name": "lastTaxCollection",
              "type": "uint256"
            },
            {
              "internalType": "uint256",
              "name": "ubi",
              "type": "uint256"
            },
            {
              "internalType": "address",
              "name": "owner",
              "type": "address"
            },
            {
              "internalType": "uint256",
              "name": "color",
              "type": "uint256"
            }
          ],
          "internalType": "struct ITheSpaceRegistry.Pixel",
          "name": "pixel",
          "type": "tuple"
        }
      ],
      "stateMutability": "view",
      "type": "function"
    },
    {
      "inputs": [
        {
          "internalType": "address",
          "name": "owner_",
          "type": "address"
        },
        {
          "internalType": "uint256",
          "name": "limit_",
          "type": "uint256"
        },
        {
          "internalType": "uint256",
          "name": "offset_",
          "type": "uint256"
        }
      ],
      "name": "getPixelsByOwner",
      "outputs": [
        {
          "internalType": "uint256",
          "name": "total",
          "type": "uint256"
        },
        {
          "internalType": "uint256",
          "name": "limit",
          "type": "uint256"
        },
        {
          "internalType": "uint256",
          "name": "offset",
          "type": "uint256"
        },
        {
          "components": [
            {
              "internalType": "uint256",
              "name": "tokenId",
              "type": "uint256"
            },
            {
              "internalType": "uint256",
              "name": "price",
              "type": "uint256"
            },
            {
              "internalType": "uint256",
              "name": "lastTaxCollection",
              "type": "uint256"
            },
            {
              "internalType": "uint256",
              "name": "ubi",
              "type": "uint256"
            },
            {
              "internalType": "address",
              "name": "owner",
              "type": "address"
            },
            {
              "internalType": "uint256",
              "name": "color",
              "type": "uint256"
            }
          ],
          "internalType": "struct ITheSpaceRegistry.Pixel[]",
          "name": "pixels",
          "type": "tuple[]"
        }
      ],
      "stateMutability": "view",
      "type": "function"
    },
    {
      "inputs": [
        {
          "internalType": "uint256",
          "name": "tokenId_",
          "type": "uint256"
        }
      ],
      "name": "getPrice",
      "outputs": [
        {
          "internalType": "uint256",
          "name": "price",
          "type": "uint256"
        }
      ],
      "stateMutability": "view",
      "type": "function"
    },
    {
      "inputs": [
        {
          "internalType": "uint256",
          "name": "tokenId_",
          "type": "uint256"
        }
      ],
      "name": "getTax",
      "outputs": [
        {
          "internalType": "uint256",
          "name": "",
          "type": "uint256"
        }
      ],
      "stateMutability": "view",
      "type": "function"
    },
    {
      "inputs": [
        {
          "internalType": "enum IACLManager.Role",
          "name": "role",
          "type": "uint8"
        },
        {
          "internalType": "address",
          "name": "newAccount",
          "type": "address"
        }
      ],
      "name": "grantRole",
      "outputs": [],
      "stateMutability": "nonpayable",
      "type": "function"
    },
    {
      "inputs": [
        {
          "internalType": "enum IACLManager.Role",
          "name": "role",
          "type": "uint8"
        },
        {
          "internalType": "address",
          "name": "account",
          "type": "address"
        }
      ],
      "name": "hasRole",
      "outputs": [
        {
          "internalType": "bool",
          "name": "",
          "type": "bool"
        }
      ],
      "stateMutability": "view",
      "type": "function"
    },
    {
      "inputs": [
        {
          "internalType": "bytes[]",
          "name": "data",
          "type": "bytes[]"
        }
      ],
      "name": "multicall",
      "outputs": [
        {
          "internalType": "bytes[]",
          "name": "results",
          "type": "bytes[]"
        }
      ],
      "stateMutability": "nonpayable",
      "type": "function"
    },
    {
      "inputs": [],
      "name": "registry",
      "outputs": [
        {
          "internalType": "contract TheSpaceRegistry",
          "name": "",
          "type": "address"
        }
      ],
      "stateMutability": "view",
      "type": "function"
    },
    {
      "inputs": [
        {
          "internalType": "enum IACLManager.Role",
          "name": "role",
          "type": "uint8"
        }
      ],
      "name": "renounceRole",
      "outputs": [],
      "stateMutability": "nonpayable",
      "type": "function"
    },
    {
      "inputs": [
        {
          "internalType": "uint256",
          "name": "tokenId_",
          "type": "uint256"
        },
        {
          "internalType": "uint256",
          "name": "color_",
          "type": "uint256"
        }
      ],
      "name": "setColor",
      "outputs": [],
      "stateMutability": "nonpayable",
      "type": "function"
    },
    {
      "inputs": [
        {
          "internalType": "uint256",
          "name": "tokenId_",
          "type": "uint256"
        },
        {
          "internalType": "uint256",
          "name": "bidPrice_",
          "type": "uint256"
        },
        {
          "internalType": "uint256",
          "name": "newPrice_",
          "type": "uint256"
        },
        {
          "internalType": "uint256",
          "name": "color_",
          "type": "uint256"
        }
      ],
      "name": "setPixel",
      "outputs": [],
      "stateMutability": "nonpayable",
      "type": "function"
    },
    {
      "inputs": [
        {
          "internalType": "uint256",
          "name": "tokenId_",
          "type": "uint256"
        },
        {
          "internalType": "uint256",
          "name": "price_",
          "type": "uint256"
        }
      ],
      "name": "setPrice",
      "outputs": [],
      "stateMutability": "nonpayable",
      "type": "function"
    },
    {
      "inputs": [
        {
          "internalType": "enum ITheSpaceRegistry.ConfigOptions",
          "name": "option_",
          "type": "uint8"
        },
        {
          "internalType": "uint256",
          "name": "value_",
          "type": "uint256"
        }
      ],
      "name": "setTaxConfig",
      "outputs": [],
      "stateMutability": "nonpayable",
      "type": "function"
    },
    {
      "inputs": [
        {
          "internalType": "string",
          "name": "uri_",
          "type": "string"
        }
      ],
      "name": "setTokenImageURI",
      "outputs": [],
      "stateMutability": "nonpayable",
      "type": "function"
    },
    {
      "inputs": [
        {
          "internalType": "uint256",
          "name": "totalSupply_",
          "type": "uint256"
        }
      ],
      "name": "setTotalSupply",
      "outputs": [],
      "stateMutability": "nonpayable",
      "type": "function"
    },
    {
      "inputs": [
        {
          "internalType": "uint256",
          "name": "tokenId_",
          "type": "uint256"
        }
      ],
      "name": "settleTax",
      "outputs": [
        {
          "internalType": "bool",
          "name": "success",
          "type": "bool"
        }
      ],
      "stateMutability": "nonpayable",
      "type": "function"
    },
    {
      "inputs": [
        {
          "internalType": "bytes4",
          "name": "interfaceId_",
          "type": "bytes4"
        }
      ],
      "name": "supportsInterface",
      "outputs": [
        {
          "internalType": "bool",
          "name": "",
          "type": "bool"
        }
      ],
      "stateMutability": "view",
      "type": "function"
    },
    {
      "inputs": [],
      "name": "tokenImageURI",
      "outputs": [
        {
          "internalType": "string",
          "name": "",
          "type": "string"
        }
      ],
      "stateMutability": "view",
      "type": "function"
    },
    {
      "inputs": [
        {
          "internalType": "enum IACLManager.Role",
          "name": "role",
          "type": "uint8"
        },
        {
          "internalType": "address",
          "name": "newAccount",
          "type": "address"
        }
      ],
      "name": "transferRole",
      "outputs": [],
      "stateMutability": "nonpayable",
      "type": "function"
    },
    {
      "inputs": [
        {
          "internalType": "uint256",
          "name": "tokenId_",
          "type": "uint256"
        }
      ],
      "name": "ubiAvailable",
      "outputs": [
        {
          "internalType": "uint256",
          "name": "",
          "type": "uint256"
        }
      ],
      "stateMutability": "view",
      "type": "function"
    },
    {
      "inputs": [
        {
          "internalType": "address",
          "name": "newImplementation",
          "type": "address"
        }
      ],
      "name": "upgradeTo",
      "outputs": [],
      "stateMutability": "nonpayable",
      "type": "function"
    },
    {
      "inputs": [
        {
          "internalType": "address",
          "name": "to_",
          "type": "address"
        }
      ],
      "name": "withdrawTreasury",
      "outputs": [],
      "stateMutability": "nonpayable",
      "type": "function"
    },
    {
      "inputs": [
        {
          "internalType": "uint256",
          "name": "tokenId_",
          "type": "uint256"
        }
      ],
      "name": "withdrawUbi",
      "outputs": [],
      "stateMutability": "nonpayable",
      "type": "function"
    }
  ],
  "bytecode": {
    "object": "0x60c06040526007608081905266697066733a2f2f60c81b60a09081526200002a916003919062000335565b503480156200003857600080fd5b5060405162006a2938038062006a298339810160408190526200005b916200041c565b60016000558282826001600160a01b0383166200008b5760405163d92e233d60e01b815260040160405180910390fd5b6200009860008462000247565b620000a560018362000247565b620000b260028262000247565b5050506001600160a01b03851615620000e657600280546001600160a01b0319166001600160a01b03871617905562000225565b620f4240600c6000886001600160a01b031663313ce5676040518163ffffffff1660e01b8152600401602060405180830381865afa1580156200012d573d6000803e3d6000fd5b505050506040513d601f19601f8201168201806040525081019062000153919062000557565b620001639060ff16600a62000698565b62000170906001620006a6565b896040516200017f90620003c4565b60e080825260069082015265506c616e636b60d01b6101008201526101206020820181905260039082015262504c4b60e81b61014082015260408101959095526060850193909352608084019190915260a08301526001600160a01b031660c082015261016001604051809103906000f08015801562000203573d6000803e3d6000fd5b50600280546001600160a01b0319166001600160a01b03929092169190911790555b83516200023a90600390602087019062000335565b505050505050506200071b565b600060016000846002811115620002625762000262620006c8565b6002811115620002765762000276620006c8565b815260208101919091526040016000908120546001600160a01b031691508290600190856002811115620002ae57620002ae620006c8565b6002811115620002c257620002c2620006c8565b8152602081019190915260400160002080546001600160a01b0319166001600160a01b03928316179055828116908216846002811115620003075762000307620006c8565b6040517f796d9fd27d307e851f66684ea6fe5e98600f0d922d136a5717ae5949892cfcf790600090a4505050565b8280546200034390620006de565b90600052602060002090601f016020900481019282620003675760008555620003b2565b82601f106200038257805160ff1916838001178555620003b2565b82800160010185558215620003b2579182015b82811115620003b257825182559160200191906001019062000395565b50620003c0929150620003d2565b5090565b612995806200409483390190565b5b80821115620003c05760008155600101620003d3565b80516001600160a01b03811681146200040157600080fd5b919050565b634e487b7160e01b600052604160045260246000fd5b60008060008060008060c087890312156200043657600080fd5b6200044187620003e9565b9550602062000452818901620003e9565b60408901519096506001600160401b03808211156200047057600080fd5b818a0191508a601f8301126200048557600080fd5b8151818111156200049a576200049a62000406565b604051601f8201601f19908116603f01168101908382118183101715620004c557620004c562000406565b816040528281528d86848701011115620004de57600080fd5b600093505b82841015620005025784840186015181850187015292850192620004e3565b82841115620005145760008684830101525b8099505050505050506200052b60608801620003e9565b92506200053b60808801620003e9565b91506200054b60a08801620003e9565b90509295509295509295565b6000602082840312156200056a57600080fd5b815160ff811681146200057c57600080fd5b9392505050565b634e487b7160e01b600052601160045260246000fd5b600181815b80851115620005da578160001904821115620005be57620005be62000583565b80851615620005cc57918102915b93841c93908002906200059e565b509250929050565b600082620005f35750600162000692565b81620006025750600062000692565b81600181146200061b5760028114620006265762000646565b600191505062000692565b60ff8411156200063a576200063a62000583565b50506001821b62000692565b5060208310610133831016604e8410600b84101617156200066b575081810a62000692565b62000677838362000599565b80600019048211156200068e576200068e62000583565b0290505b92915050565b60006200057c8383620005e2565b6000816000190483118215151615620006c357620006c362000583565b500290565b634e487b7160e01b600052602160045260246000fd5b600181811c90821680620006f357607f821691505b602082108114156200071557634e487b7160e01b600052602260045260246000fd5b50919050565b613969806200072b6000396000f3fe608060405234801561001057600080fd5b50600436106101cf5760003560e01c80638ec8c50411610104578063e7572230116100a2578063f7ea7a3d11610071578063f7ea7a3d14610449578063f86c9e9a1461045c578063fce58c171461046f578063ff1644d81461047757600080fd5b8063e7572230146103fd578063ecaf822a14610410578063ee1ef07e14610423578063f7d975771461043657600080fd5b8063b4f80eb9116100de578063b4f80eb91461037f578063c0aed4a71461039f578063c41a360a146103c2578063cf3a421f146103d557600080fd5b80638ec8c504146103395780639e97b8f61461034c578063ac9650d81461035f57600080fd5b80633659cfe6116101715780635d5664e11161014b5780635d5664e1146102c85780637b103999146102db57806380057b9a146103065780638d17e7121461031957600080fd5b80633659cfe61461028f5780633f8c2b5b146102a2578063598647f8146102b557600080fd5b80630f920904116101ad5780630f9209041461024357806310718d3b1461025657806310ac4e7414610269578063242d81cd1461027c57600080fd5b806301ffc9a7146101d4578063057c9cb81461020d578063099da37f14610222575b600080fd5b6101f86101e2366004613007565b6001600160e01b031916631f37ad1b60e21b1490565b60405190151581526020015b60405180910390f35b61022061021b366004613041565b61048a565b005b61023561023036600461305e565b6104ff565b604051908152602001610204565b61022061025136600461308d565b610598565b610220610264366004613153565b6105db565b61023561027736600461305e565b610636565b61022061028a36600461318c565b6107bd565b61022061029d3660046131ae565b6108c4565b6101f86102b036600461305e565b610953565b6102206102c336600461318c565b610a18565b6102206102d6366004613153565b610ee9565b6002546102ee906001600160a01b031681565b6040516001600160a01b039091168152602001610204565b61023561031436600461305e565b610f47565b61032c61032736600461305e565b610fb5565b6040516102049190613223565b6101f861034736600461305e565b61110b565b6101f861035a366004613153565b611180565b61037261036d366004613236565b611193565b60405161020491906132ab565b61039261038d36600461305e565b611288565b604051610204919061334d565b6103b26103ad36600461335b565b611299565b6040516102049493929190613390565b6102ee6103d036600461305e565b61150d565b6103e86103e336600461305e565b6115f3565b60408051928352901515602083015201610204565b61023561040b36600461305e565b611893565b61022061041e3660046133f6565b611984565b61022061043136600461305e565b611a18565b61022061044436600461318c565b611c72565b61022061045736600461305e565b611d32565b61022061046a3660046131ae565b611d8e565b61032c611f55565b610220610485366004613422565b611fe3565b806104958133612008565b6104bd5780604051631e6fd6c360e21b81526004016104b49190613488565b60405180910390fd5b60008260028111156104d1576104d1613454565b14156104f057604051631dd2188d60e31b815260040160405180910390fd5b6104fb82600061205d565b5050565b600254604051634f558e7960e01b8152600481018390526000916001600160a01b031690634f558e7990602401602060405180830381865afa158015610549573d6000803e3d6000fd5b505050506040513d601f19601f8201168201806040525081019061056d919061349b565b61058957604051626f708760e21b815260040160405180910390fd5b6105928261213c565b92915050565b60006105a48133612008565b6105c35780604051631e6fd6c360e21b81526004016104b49190613488565b81516105d6906003906020850190612f2f565b505050565b816105e68133612008565b6106055780604051631e6fd6c360e21b81526004016104b49190613488565b6001600160a01b03821661062c5760405163d92e233d60e01b815260040160405180910390fd5b6105d6838361205d565b600080600260009054906101000a90046001600160a01b03166001600160a01b0316634d7c7dc76040518163ffffffff1660e01b8152600401606060405180830381865afa15801561068c573d6000803e3d6000fd5b505050506040513d601f19601f820116820180604052508101906106b091906134bd565b5050600254604051631751d10160e21b8152600481018690529192506000916001600160a01b0390911690635d47440490602401606060405180830381865afa158015610701573d6000803e3d6000fd5b505050506040513d601f19601f8201168201806040525081019061072591906134bd565b9250505080600260009054906101000a90046001600160a01b03166001600160a01b03166318160ddd6040518163ffffffff1660e01b8152600401602060405180830381865afa15801561077d573d6000803e3d6000fd5b505050506040513d601f19601f820116820180604052508101906107a191906134eb565b6107ab9084613530565b6107b59190613544565b949350505050565b60025460405163430c208160e01b8152336004820152602481018490526001600160a01b039091169063430c208190604401602060405180830381865afa15801561080c573d6000803e3d6000fd5b505050506040513d601f19601f82011682018060405250810190610830919061349b565b61084c576040516282b42960e81b815260040160405180910390fd5b6002546040516331a9108f60e11b8152600481018490526104fb91849184916001600160a01b031690636352211e90602401602060405180830381865afa15801561089b573d6000803e3d6000fd5b505050506040513d601f19601f820116820180604052508101906108bf919061355b565b61226f565b60006108d08133612008565b6108ef5780604051631e6fd6c360e21b81526004016104b49190613488565b60025460405163f2fde38b60e01b81526001600160a01b0384811660048301529091169063f2fde38b906024015b600060405180830381600087803b15801561093757600080fd5b505af115801561094b573d6000803e3d6000fd5b505050505050565b6002546000906001600160a01b03163314610980576040516282b42960e81b815260040160405180910390fd5b6109898261110b565b50600254604051634f558e7960e01b8152600481018490526001600160a01b0390911690634f558e7990602401602060405180830381865afa1580156109d3573d6000803e3d6000fd5b505050506040513d601f19601f820116820180604052508101906109f7919061349b565b15610a0f57610a07826000612327565b506001919050565b5060005b919050565b60026000541415610a6b5760405162461bcd60e51b815260206004820152601f60248201527f5265656e7472616e637947756172643a207265656e7472616e742063616c6c0060448201526064016104b4565b60026000908155610a7b8361150d565b90506000610a888461239f565b6002805460405163e7d6fbbf60e01b81529293506000926001600160a01b039091169163e7d6fbbf91610abe9190600401613488565b602060405180830381865afa158015610adb573d6000803e3d6000fd5b505050506040513d601f19601f82011682018060405250810190610aff91906134eb565b600254604051634f558e7960e01b8152600481018890529192506000916001600160a01b0390911690634f558e7990602401602060405180830381865afa158015610b4e573d6000803e3d6000fd5b505050506040513d601f19601f82011682018060405250810190610b72919061349b565b15610d71576001600160a01b038416331415610b915750505050610ee0565b6000610b9c8761241b565b90508015610d115783915081861015610bc857604051636dddf41160e11b815260040160405180910390fd5b600254604051631daa479b60e21b81526001600160a01b03909116906376a91e6c90610bfc90339089908790600401613578565b600060405180830381600087803b158015610c1657600080fd5b505af1158015610c2a573d6000803e3d6000fd5b5050600254604051631614022160e21b81526001600160a01b03909116925063585008849150610c6290889033908c90600401613578565b600060405180830381600087803b158015610c7c57600080fd5b505af1158015610c90573d6000803e3d6000fd5b5050600254604051638643700760e01b8152600481018b90526001600160a01b03898116602483015233604483015260648201879052909116925063864370079150608401600060405180830381600087803b158015610cef57600080fd5b505af1158015610d03573d6000803e3d6000fd5b505050505050505050610ee0565b600254604051630852cd8d60e31b8152600481018990526001600160a01b03909116906342966c6890602401600060405180830381600087803b158015610d5757600080fd5b505af1158015610d6b573d6000803e3d6000fd5b50505050505b508080851015610d9457604051636dddf41160e11b815260040160405180910390fd5b600254604051631daa479b60e21b81526001600160a01b03909116906376a91e6c90610dc890339084908690600401613578565b600060405180830381600087803b158015610de257600080fd5b505af1158015610df6573d6000803e3d6000fd5b50505050610e0586338461251e565b6002546040516340c10f1960e01b8152336004820152602481018890526001600160a01b03909116906340c10f1990604401600060405180830381600087803b158015610e5157600080fd5b505af1158015610e65573d6000803e3d6000fd5b5050600254604051638643700760e01b8152600481018a905260006024820152336044820152606481018590526001600160a01b03909116925063864370079150608401600060405180830381600087803b158015610ec357600080fd5b505af1158015610ed7573d6000803e3d6000fd5b50505050505050505b50506001600055565b6000610ef58133612008565b610f145780604051631e6fd6c360e21b81526004016104b49190613488565b6000836002811115610f2857610f28613454565b141561060557604051631dd2188d60e31b815260040160405180910390fd5b6002546040516303b1a1e960e31b8152600481018390526000916001600160a01b031690631d8d0f4890602401602060405180830381865afa158015610f91573d6000803e3d6000fd5b505050506040513d601f19601f8201168201806040525081019061059291906134eb565b6002546060906001600160a01b03163314610fe2576040516282b42960e81b815260040160405180910390fd5b600254604051634f558e7960e01b8152600481018490526001600160a01b0390911690634f558e7990602401602060405180830381865afa15801561102b573d6000803e3d6000fd5b505050506040513d601f19601f8201168201806040525081019061104f919061349b565b61106b57604051626f708760e21b815260040160405180910390fd5b600061107683612820565b604051602001611086919061359c565b60408051601f1981840301815260608301909152603b808352909250600091906138926020830139905060006110df838360036040516020016110cb93929190613607565b60405160208183030381529060405261291e565b9050806040516020016110f2919061374f565b6040516020818303038152906040529350505050919050565b60006111168261241b565b905080610a1357600254604051630852cd8d60e31b8152600481018490526001600160a01b03909116906342966c6890602401600060405180830381600087803b15801561116357600080fd5b505af1158015611177573d6000803e3d6000fd5b50505050919050565b600061118c8383612008565b9392505050565b60608167ffffffffffffffff8111156111ae576111ae613077565b6040519080825280602002602001820160405280156111e157816020015b60608152602001906001900390816111cc5790505b50905060005b82811015611281576112513085858481811061120557611205613794565b905060200281019061121791906137aa565b8080601f016020809104026020016040519081016040528093929190818152602001838380828437600092019190915250612a7292505050565b82828151811061126357611263613794565b60200260200101819052508080611279906137f8565b9150506111e7565b5092915050565b611290612fb3565b61059282612a97565b6002546040516370a0823160e01b81526001600160a01b0385811660048301526000928392839260609284929116906370a0823190602401602060405180830381865afa1580156112ee573d6000803e3d6000fd5b505050506040513d601f19601f8201168201806040525081019061131291906134eb565b90508661135e576040805160008082526020820190925282918991899161134f565b61133c612fb3565b8152602001906001900390816113345790505b50945094509450945050611504565b8086106113a9576040805160008082526020820190925282918991899161134f565b611388612fb3565b81526020019060019003908161138057905050945094509450945050611504565b60006113b58783613544565b905060008882116113c657816113c8565b885b905060008167ffffffffffffffff8111156113e5576113e5613077565b60405190808252806020026020018201604052801561141e57816020015b61140b612fb3565b8152602001906001900390816114035790505b50905060005b828110156114f4576002546000906001600160a01b0316632f745c598e61144b8e86613813565b6040516001600160e01b031960e085901b1681526001600160a01b0390921660048301526024820152604401602060405180830381865afa158015611494573d6000803e3d6000fd5b505050506040513d601f19601f820116820180604052508101906114b891906134eb565b90506114c381612a97565b8383815181106114d5576114d5613794565b60200260200101819052505080806114ec906137f8565b915050611424565b5092965088955087945091925050505b93509350935093565b600254604051634f558e7960e01b8152600481018390526000916001600160a01b031690634f558e7990602401602060405180830381865afa158015611557573d6000803e3d6000fd5b505050506040513d601f19601f8201168201806040525081019061157b919061349b565b611586576000610592565b6002546040516331a9108f60e11b8152600481018490526001600160a01b0390911690636352211e90602401602060405180830381865afa1580156115cf573d6000803e3d6000fd5b505050506040513d601f19601f82011682018060405250810190610592919061355b565b6000806000611601846104ff565b90508015611887576002546040516331a9108f60e11b8152600481018690526000916001600160a01b031690636352211e90602401602060405180830381865afa158015611653573d6000803e3d6000fd5b505050506040513d601f19601f82011682018060405250810190611677919061355b565b90506000600260009054906101000a90046001600160a01b03166001600160a01b031663e5a6b10f6040518163ffffffff1660e01b8152600401602060405180830381865afa1580156116ce573d6000803e3d6000fd5b505050506040513d601f19601f820116820180604052508101906116f2919061355b565b600254604051636eb1769f60e11b81526001600160a01b038581166004830152918216602482015291169063dd62ed3e90604401602060405180830381865afa158015611743573d6000803e3d6000fd5b505050506040513d601f19601f8201168201806040525081019061176791906134eb565b90506000600260009054906101000a90046001600160a01b03166001600160a01b031663e5a6b10f6040518163ffffffff1660e01b8152600401602060405180830381865afa1580156117be573d6000803e3d6000fd5b505050506040513d601f19601f820116820180604052508101906117e2919061355b565b6040516370a0823160e01b81526001600160a01b03858116600483015291909116906370a0823190602401602060405180830381865afa15801561182a573d6000803e3d6000fd5b505050506040513d601f19601f8201168201806040525081019061184e91906134eb565b9050600081831061185f5781611861565b825b90508481106118795750929660009650945050505050565b976001975095505050505050565b50600093849350915050565b600254604051634f558e7960e01b8152600481018390526000916001600160a01b031690634f558e7990602401602060405180830381865afa1580156118dd573d6000803e3d6000fd5b505050506040513d601f19601f82011682018060405250810190611901919061349b565b61197b576002805460405163e7d6fbbf60e01b81526001600160a01b039091169163e7d6fbbf916119359190600401613488565b602060405180830381865afa158015611952573d6000803e3d6000fd5b505050506040513d601f19601f8201168201806040525081019061197691906134eb565b610592565b6105928261239f565b60016119908133612008565b6119af5780604051631e6fd6c360e21b81526004016104b49190613488565b600254604051637657c11560e11b81526001600160a01b039091169063ecaf822a906119e1908690869060040161382b565b600060405180830381600087803b1580156119fb57600080fd5b505af1158015611a0f573d6000803e3d6000fd5b50505050505050565b6000611a2382610636565b905080156104fb576002546040516331a9108f60e11b8152600481018490526000916001600160a01b031690636352211e90602401602060405180830381865afa158015611a75573d6000803e3d6000fd5b505050506040513d601f19601f82011682018060405250810190611a99919061355b565b60025460405163e3759abd60e01b81526001600160a01b0380841660048301526024820186905292935091169063e3759abd90604401600060405180830381600087803b158015611ae957600080fd5b505af1158015611afd573d6000803e3d6000fd5b5050600254604051631751d10160e21b8152600481018790526000935083925082916001600160a01b031690635d47440490602401606060405180830381865afa158015611b4f573d6000803e3d6000fd5b505050506040513d601f19601f82011682018060405250810190611b7391906134bd565b60025492955090935091506001600160a01b031663b3e4ee22878585611b998a87613813565b6040516001600160e01b031960e087901b1681526004810194909452602484019290925260448301526064820152608401600060405180830381600087803b158015611be457600080fd5b505af1158015611bf8573d6000803e3d6000fd5b50506002546040516308b26d3b60e11b8152600481018a90526001600160a01b038881166024830152604482018a90529091169250631164da7691506064015b600060405180830381600087803b158015611c5257600080fd5b505af1158015611c66573d6000803e3d6000fd5b50505050505050505050565b60025460405163430c208160e01b8152336004820152602481018490526001600160a01b039091169063430c208190604401602060405180830381865afa158015611cc1573d6000803e3d6000fd5b505050506040513d601f19601f82011682018060405250810190611ce5919061349b565b611d01576040516282b42960e81b815260040160405180910390fd5b611d0a8261239f565b811415611d15575050565b6000611d208361110b565b905080156105d6576105d68383612327565b6001611d3e8133612008565b611d5d5780604051631e6fd6c360e21b81526004016104b49190613488565b60025460405163f7ea7a3d60e01b8152600481018490526001600160a01b039091169063f7ea7a3d9060240161091d565b6002611d9a8133612008565b611db95780604051631e6fd6c360e21b81526004016104b49190613488565b6000806000600260009054906101000a90046001600160a01b03166001600160a01b0316634d7c7dc76040518163ffffffff1660e01b8152600401606060405180830381865afa158015611e11573d6000803e3d6000fd5b505050506040513d601f19601f82011682018060405250810190611e3591906134bd565b919450925090506000611e488284613544565b60025460405163e3759abd60e01b81526001600160a01b0389811660048301526024820184905292935091169063e3759abd90604401600060405180830381600087803b158015611e9857600080fd5b505af1158015611eac573d6000803e3d6000fd5b5050600254604051635701e25d60e01b81526001600160a01b038a81166004830152602482018690529091169250635701e25d9150604401600060405180830381600087803b158015611efe57600080fd5b505af1158015611f12573d6000803e3d6000fd5b5050600254604051630b07a84960e31b81526004810188905260248101879052604481018790526001600160a01b03909116925063583d42489150606401611c38565b60038054611f62906135cc565b80601f0160208091040260200160405190810160405280929190818152602001828054611f8e906135cc565b8015611fdb5780601f10611fb057610100808354040283529160200191611fdb565b820191906000526020600020905b815481529060010190602001808311611fbe57829003601f168201915b505050505081565b611fed8484610a18565b611ff78483611c72565b61200284823361226f565b50505050565b6000816001600160a01b03166001600085600281111561202a5761202a613454565b600281111561203b5761203b613454565b81526020810191909152604001600020546001600160a01b0316149392505050565b60006001600084600281111561207557612075613454565b600281111561208657612086613454565b815260208101919091526040016000908120546001600160a01b0316915082906001908560028111156120bb576120bb613454565b60028111156120cc576120cc613454565b8152602081019190915260400160002080546001600160a01b0319166001600160a01b0392831617905582811690821684600281111561210e5761210e613454565b6040517f796d9fd27d307e851f66684ea6fe5e98600f0d922d136a5717ae5949892cfcf790600090a4505050565b600254604051631751d10160e21b815260048101839052600091829182916001600160a01b031690635d47440490602401606060405180830381865afa15801561218a573d6000803e3d6000fd5b505050506040513d601f19601f820116820180604052508101906121ae91906134bd565b509150915081600014156121c6575060009392505050565b60025460405163e7d6fbbf60e01b81526000916001600160a01b03169063e7d6fbbf906121f7908490600401613488565b602060405180830381865afa158015612214573d6000803e3d6000fd5b505050506040513d601f19601f8201168201806040525081019061223891906134eb565b9050629896806122488343613544565b6122528386613842565b61225c9190613842565b6122669190613530565b95945050505050565b6002546040516303b1a1e960e31b81526004810185905283916001600160a01b031690631d8d0f4890602401602060405180830381865afa1580156122b8573d6000803e3d6000fd5b505050506040513d601f19601f820116820180604052508101906122dc91906134eb565b14156122e757505050565b6002546040516352f2cfd960e11b815260048101859052602481018490526001600160a01b0383811660448301529091169063a5e59fb2906064016119e1565b6002546040516331a9108f60e11b8152600481018490526104fb91849184916001600160a01b031690636352211e90602401602060405180830381865afa158015612376573d6000803e3d6000fd5b505050506040513d601f19601f8201168201806040525081019061239a919061355b565b612bcd565b600254604051631751d10160e21b81526004810183905260009182916001600160a01b0390911690635d47440490602401606060405180830381865afa1580156123ed573d6000803e3d6000fd5b505050506040513d601f19601f8201168201806040525081019061241191906134bd565b5090949350505050565b6000806000612429846115f3565b90925090508115612516576002546040516331a9108f60e11b8152600481018690526000916001600160a01b031690636352211e90602401602060405180830381865afa15801561247e573d6000803e3d6000fd5b505050506040513d601f19601f820116820180604052508101906124a2919061355b565b600254604051631daa479b60e21b81529192506001600160a01b0316906376a91e6c906124d790849084908890600401613578565b600060405180830381600087803b1580156124f157600080fd5b505af1158015612505573d6000803e3d6000fd5b5050505061251485828561251e565b505b159392505050565b60025460405163e7d6fbbf60e01b81526000916001600160a01b03169063e7d6fbbf9061255090600190600401613488565b602060405180830381865afa15801561256d573d6000803e3d6000fd5b505050506040513d601f19601f8201168201806040525081019061259191906134eb565b905060006127106125a28385613842565b6125ac9190613530565b90506000806000600260009054906101000a90046001600160a01b03166001600160a01b0316634d7c7dc76040518163ffffffff1660e01b8152600401606060405180830381865afa158015612606573d6000803e3d6000fd5b505050506040513d601f19601f8201168201806040525081019061262a91906134bd565b60025492955090935091506001600160a01b031663583d424861264d8689613544565b6126579086613813565b6126618786613813565b6040516001600160e01b031960e085901b1681526004810192909252602482015260448101849052606401600060405180830381600087803b1580156126a657600080fd5b505af11580156126ba573d6000803e3d6000fd5b5050600254604051631751d10160e21b8152600481018c9052600093508392506001600160a01b0390911690635d47440490602401606060405180830381865afa15801561270c573d6000803e3d6000fd5b505050506040513d601f19601f8201168201806040525081019061273091906134bd565b6002546040516359f2771160e11b8152600481018f905260248101859052436044820152606481018390529395509093506001600160a01b03169163b3e4ee229150608401600060405180830381600087803b15801561278f57600080fd5b505af11580156127a3573d6000803e3d6000fd5b5050600254604051632b2163b360e01b8152600481018e90526001600160a01b038d81166024830152604482018d90529091169250632b2163b39150606401600060405180830381600087803b1580156127fc57600080fd5b505af1158015612810573d6000803e3d6000fd5b5050505050505050505050505050565b6060816128445750506040805180820190915260018152600360fc1b602082015290565b8160005b811561286e5780612858816137f8565b91506128679050600a83613530565b9150612848565b60008167ffffffffffffffff81111561288957612889613077565b6040519080825280601f01601f1916602001820160405280156128b3576020820181803683370190505b5090505b84156107b5576128c8600183613544565b91506128d5600a86613861565b6128e0906030613813565b60f81b8183815181106128f5576128f5613794565b60200101906001600160f81b031916908160001a905350612917600a86613530565b94506128b7565b606081516000141561293e57505060408051602081019091526000815290565b60006040518060600160405280604081526020016138cd604091399050600060038451600261296d9190613813565b6129779190613530565b612982906004613842565b67ffffffffffffffff81111561299a5761299a613077565b6040519080825280601f01601f1916602001820160405280156129c4576020820181803683370190505b509050600182016020820185865187015b80821015612a30576003820191508151603f8160121c168501518453600184019350603f81600c1c168501518453600184019350603f8160061c168501518453600184019350603f81168501518453506001830192506129d5565b5050600386510660018114612a4c5760028114612a5f57612a67565b603d6001830353603d6002830353612a67565b603d60018303535b509195945050505050565b606061118c838360405180606001604052806027815260200161390d60279139612e19565b612a9f612fb3565b600254604051631751d10160e21b8152600481018490526000916001600160a01b031690635d47440490602401606060405180830381865afa158015612ae9573d6000803e3d6000fd5b505050506040513d601f19601f82011682018060405250810190612b0d91906134bd565b509150506040518060c00160405280848152602001612b2b85611893565b8152602001828152602001612b3f85610636565b8152602001612b4d8561150d565b6001600160a01b0390811682526002546040516303b1a1e960e31b815260048101889052602090930192911690631d8d0f4890602401602060405180830381865afa158015612ba0573d6000803e3d6000fd5b505050506040513d601f19601f82011682018060405250810190612bc491906134eb565b90529392505050565b6002546040805163e5a6b10f60e01b815290516000926001600160a01b03169163e5a6b10f9160048083019260209291908290030181865afa158015612c17573d6000803e3d6000fd5b505050506040513d601f19601f82011682018060405250810190612c3b919061355b565b6001600160a01b03166318160ddd6040518163ffffffff1660e01b8152600401602060405180830381865afa158015612c78573d6000803e3d6000fd5b505050506040513d601f19601f82011682018060405250810190612c9c91906134eb565b905080831115612cc257604051630c3db3e760e01b8152600481018290526024016104b4565b600254604051631751d10160e21b8152600481018690526000916001600160a01b031690635d47440490602401606060405180830381865afa158015612d0c573d6000803e3d6000fd5b505050506040513d601f19601f82011682018060405250810190612d3091906134bd565b6002546040516359f2771160e11b8152600481018a905260248101899052436044820152606481018390529194506001600160a01b0316925063b3e4ee229150608401600060405180830381600087803b158015612d8d57600080fd5b505af1158015612da1573d6000803e3d6000fd5b505060025460405163d17d14c560e01b815260048101899052602481018890526001600160a01b038781166044830152909116925063d17d14c59150606401600060405180830381600087803b158015612dfa57600080fd5b505af1158015612e0e573d6000803e3d6000fd5b505050505050505050565b60606001600160a01b0384163b612e815760405162461bcd60e51b815260206004820152602660248201527f416464726573733a2064656c65676174652063616c6c20746f206e6f6e2d636f6044820152651b9d1c9858dd60d21b60648201526084016104b4565b600080856001600160a01b031685604051612e9c9190613875565b600060405180830381855af49150503d8060008114612ed7576040519150601f19603f3d011682016040523d82523d6000602084013e612edc565b606091505b5091509150612eec828286612ef6565b9695505050505050565b60608315612f0557508161118c565b825115612f155782518084602001fd5b8160405162461bcd60e51b81526004016104b49190613223565b828054612f3b906135cc565b90600052602060002090601f016020900481019282612f5d5760008555612fa3565b82601f10612f7657805160ff1916838001178555612fa3565b82800160010185558215612fa3579182015b82811115612fa3578251825591602001919060010190612f88565b50612faf929150612ff2565b5090565b6040518060c001604052806000815260200160008152602001600081526020016000815260200160006001600160a01b03168152602001600081525090565b5b80821115612faf5760008155600101612ff3565b60006020828403121561301957600080fd5b81356001600160e01b03198116811461118c57600080fd5b6003811061303e57600080fd5b50565b60006020828403121561305357600080fd5b813561118c81613031565b60006020828403121561307057600080fd5b5035919050565b634e487b7160e01b600052604160045260246000fd5b60006020828403121561309f57600080fd5b813567ffffffffffffffff808211156130b757600080fd5b818401915084601f8301126130cb57600080fd5b8135818111156130dd576130dd613077565b604051601f8201601f19908116603f0116810190838211818310171561310557613105613077565b8160405282815287602084870101111561311e57600080fd5b826020860160208301376000928101602001929092525095945050505050565b6001600160a01b038116811461303e57600080fd5b6000806040838503121561316657600080fd5b823561317181613031565b915060208301356131818161313e565b809150509250929050565b6000806040838503121561319f57600080fd5b50508035926020909101359150565b6000602082840312156131c057600080fd5b813561118c8161313e565b60005b838110156131e65781810151838201526020016131ce565b838111156120025750506000910152565b6000815180845261320f8160208601602086016131cb565b601f01601f19169290920160200192915050565b60208152600061118c60208301846131f7565b6000806020838503121561324957600080fd5b823567ffffffffffffffff8082111561326157600080fd5b818501915085601f83011261327557600080fd5b81358181111561328457600080fd5b8660208260051b850101111561329957600080fd5b60209290920196919550909350505050565b6000602080830181845280855180835260408601915060408160051b870101925083870160005b8281101561330057603f198886030184526132ee8583516131f7565b945092850192908501906001016132d2565b5092979650505050505050565b805182526020808201519083015260408082015190830152606080820151908301526080808201516001600160a01b03169083015260a090810151910152565b60c08101610592828461330d565b60008060006060848603121561337057600080fd5b833561337b8161313e565b95602085013595506040909401359392505050565b600060808201868352602086818501528560408501526080606085015281855180845260a086019150828701935060005b818110156133e7576133d483865161330d565b9383019360c092909201916001016133c1565b50909998505050505050505050565b6000806040838503121561340957600080fd5b823561341481613031565b946020939093013593505050565b6000806000806080858703121561343857600080fd5b5050823594602084013594506040840135936060013592509050565b634e487b7160e01b600052602160045260246000fd5b6003811061303e57634e487b7160e01b600052602160045260246000fd5b602081016134958361346a565b91905290565b6000602082840312156134ad57600080fd5b8151801515811461118c57600080fd5b6000806000606084860312156134d257600080fd5b8351925060208401519150604084015190509250925092565b6000602082840312156134fd57600080fd5b5051919050565b634e487b7160e01b600052601260045260246000fd5b634e487b7160e01b600052601160045260246000fd5b60008261353f5761353f613504565b500490565b6000828210156135565761355661351a565b500390565b60006020828403121561356d57600080fd5b815161118c8161313e565b6001600160a01b039384168152919092166020820152604081019190915260600190565b67506c616e636b202360c01b8152600082516135bf8160088501602087016131cb565b9190910160080192915050565b600181811c908216806135e057607f821691505b6020821081141561360157634e487b7160e01b600052602260045260246000fd5b50919050565b693d913730b6b2911d101160b11b81528351600090602061362e82600a8601838a016131cb565b72111610113232b9b1b934b83a34b7b7111d101160691b600a92850192830152855161366081601d8501848a016131cb565b71222c202261747472696275746573223a205b60701b601d93909101928301526c2e96101134b6b0b3b2911d101160991b602f8301528454603c90600090600181811c90808316806136b357607f831692505b8683108114156136d157634e487b7160e01b85526022600452602485fd5b8080156136e557600181146136fa5761372b565b60ff198516898801528389018701955061372b565b60008c81526020902060005b858110156137215781548b82018a0152908401908901613706565b505086848a010195505b50505050506137428161227d60f01b815260020190565b9998505050505050505050565b7f646174613a6170706c69636174696f6e2f6a736f6e3b6261736536342c00000081526000825161378781601d8501602087016131cb565b91909101601d0192915050565b634e487b7160e01b600052603260045260246000fd5b6000808335601e198436030181126137c157600080fd5b83018035915067ffffffffffffffff8211156137dc57600080fd5b6020019150368190038213156137f157600080fd5b9250929050565b600060001982141561380c5761380c61351a565b5060010190565b600082198211156138265761382661351a565b500190565b604081016138388461346a565b9281526020015290565b600081600019048311821515161561385c5761385c61351a565b500290565b60008261387057613870613504565b500690565b600082516138878184602087016131cb565b919091019291505056fe4f6e65206f662031206d696c6c696f6e20706978656c732074726164656420756e646572204861726265726765722054617820616e64205542492e4142434445464748494a4b4c4d4e4f505152535455565758595a6162636465666768696a6b6c6d6e6f707172737475767778797a303132333435363738392b2f416464726573733a206c6f772d6c6576656c2064656c65676174652063616c6c206661696c6564a264697066735822122019e6f5d098888b8528ef5783adeae64d634daac7e6bd2bf15cb20ab8e887aa4264736f6c634300080b003360a06040523480156200001157600080fd5b506040516200299538038062002995833981016040819052620000349162000365565b8651879087906200004d906000906020850190620001f2565b50805162000063906001906020840190620001f2565b505050620000806200007a6200019c60201b60201c565b620001a0565b600b8590556001600160a01b0381166080526000808052600e60209081527fe710864318d4a32f37d6ce54cb3fadbef648dd12d8dbdf53973564d56b7f881c86905560408051878152905160008051602062002975833981519152929181900390910190a260016000819052600e60209081527fa7c5ba7114a813b50159add3a36832908dc83db71d0b9a24c2ad0f83be95820785905560408051868152905160008051602062002975833981519152929181900390910190a260026000819052600e60209081527f9adb202b1492743bc00c81d33cdc6423fa8c79109027eb6a845391e8fc1f048184905560408051858152905160008051602062002975833981519152929181900390910190a25050505050505062000453565b3390565b600a80546001600160a01b038381166001600160a01b0319831681179093556040519116919082907f8be0079c531659141344cd1fd0a4f28419497f9722a3daafe3b4186f6b6457e090600090a35050565b828054620002009062000416565b90600052602060002090601f0160209004810192826200022457600085556200026f565b82601f106200023f57805160ff19168380011785556200026f565b828001600101855582156200026f579182015b828111156200026f57825182559160200191906001019062000252565b506200027d92915062000281565b5090565b5b808211156200027d576000815560010162000282565b634e487b7160e01b600052604160045260246000fd5b600082601f830112620002c057600080fd5b81516001600160401b0380821115620002dd57620002dd62000298565b604051601f8301601f19908116603f0116810190828211818310171562000308576200030862000298565b816040528381526020925086838588010111156200032557600080fd5b600091505b838210156200034957858201830151818301840152908201906200032a565b838211156200035b5760008385830101525b9695505050505050565b600080600080600080600060e0888a0312156200038157600080fd5b87516001600160401b03808211156200039957600080fd5b620003a78b838c01620002ae565b985060208a0151915080821115620003be57600080fd5b50620003cd8a828b01620002ae565b96505060408801519450606088015193506080880151925060a0880151915060c088015160018060a01b03811681146200040657600080fd5b8091505092959891949750929550565b600181811c908216806200042b57607f821691505b602082108114156200044d57634e487b7160e01b600052602260045260246000fd5b50919050565b6080516124f86200047d6000396000818161053e01528181610ded015261121e01526124f86000f3fe608060405234801561001057600080fd5b50600436106102535760003560e01c80635d47440411610146578063b3e4ee22116100c3578063e5a6b10f11610087578063e5a6b10f14610539578063e7d6fbbf14610560578063e985e9c514610580578063ecaf822a146105bc578063f2fde38b146105cf578063f7ea7a3d146105e257600080fd5b8063b3e4ee22146104da578063b88d4fde146104ed578063c87b56dd14610500578063d17d14c514610513578063e3759abd1461052657600080fd5b8063864370071161010a57806386437007146104885780638da5cb5b1461049b57806395d89b41146104ac578063a22cb465146104b4578063a5e59fb2146104c757600080fd5b80635d474404146104185780636352211e1461044757806370a082311461045a578063715018a61461046d57806376a91e6c1461047557600080fd5b806340c10f19116101d45780634f558e79116101985780634f558e79146103b95780634f6ccce7146103cc5780635701e25d146103df578063583d4248146103f2578063585008841461040557600080fd5b806340c10f191461035357806342842e0e1461031a57806342966c6814610366578063430c2081146103795780634d7c7dc71461038c57600080fd5b806318160ddd1161021b57806318160ddd146102e85780631d8d0f48146102fa57806323b872dd1461031a5780632b2163b31461032d5780632f745c591461034057600080fd5b806301ffc9a71461025857806306fdde0314610280578063081812fc14610295578063095ea7b3146102c05780631164da76146102d5575b600080fd5b61026b610266366004611e79565b6105f5565b60405190151581526020015b60405180910390f35b610288610620565b6040516102779190611eee565b6102a86102a3366004611f01565b6106b2565b6040516001600160a01b039091168152602001610277565b6102d36102ce366004611f36565b61074c565b005b6102d36102e3366004611f60565b610862565b600b545b604051908152602001610277565b6102ec610308366004611f01565b600d6020526000908152604090205481565b6102d3610328366004611f95565b6108d5565b6102d361033b366004611f60565b6108f0565b6102ec61034e366004611f36565b610956565b6102d3610361366004611f36565b6109ec565b6102d3610374366004611f01565b610a60565b61026b610387366004611f36565b610a96565b600f5460105460115461039e92919083565b60408051938452602084019290925290820152606001610277565b61026b6103c7366004611f01565b610aa9565b6102ec6103da366004611f01565b610ac8565b6102d36103ed366004611f36565b610b5b565b6102d3610400366004611fc1565b610bcc565b6102d3610413366004611f95565b610c1c565b61039e610426366004611f01565b600c6020526000908152604090208054600182015460029092015490919083565b6102a8610455366004611f01565b610c61565b6102ec610468366004611fed565b610cd8565b6102d3610d5f565b6102d3610483366004611f95565b610d95565b6102d3610496366004612008565b610e60565b600a546001600160a01b03166102a8565b610288610ede565b6102d36104c236600461205a565b610eed565b6102d36104d5366004612091565b610ef8565b6102d36104e83660046120c6565b610f6c565b6102d36104fb366004612167565b610fd1565b61028861050e366004611f01565b6110e2565b6102d3610521366004612091565b611168565b6102d3610534366004611f36565b6111ce565b6102a87f000000000000000000000000000000000000000000000000000000000000000081565b6102ec61056e366004612221565b600e6020526000908152604090205481565b61026b61058e36600461223c565b6001600160a01b03918216600090815260056020908152604080832093909416825291909152205460ff1690565b6102d36105ca36600461226f565b61128b565b6102d36105dd366004611fed565b611330565b6102d36105f0366004611f01565b6113c8565b60006001600160e01b0319821663780e9d6360e01b148061061a575061061a82611433565b92915050565b60606000805461062f9061228b565b80601f016020809104026020016040519081016040528092919081815260200182805461065b9061228b565b80156106a85780601f1061067d576101008083540402835291602001916106a8565b820191906000526020600020905b81548152906001019060200180831161068b57829003601f168201915b5050505050905090565b6000818152600260205260408120546001600160a01b03166107305760405162461bcd60e51b815260206004820152602c60248201527f4552433732313a20617070726f76656420717565727920666f72206e6f6e657860448201526b34b9ba32b73a103a37b5b2b760a11b60648201526084015b60405180910390fd5b506000908152600460205260409020546001600160a01b031690565b600061075782610c61565b9050806001600160a01b0316836001600160a01b031614156107c55760405162461bcd60e51b815260206004820152602160248201527f4552433732313a20617070726f76616c20746f2063757272656e74206f776e656044820152603960f91b6064820152608401610727565b336001600160a01b03821614806107e157506107e1813361058e565b6108535760405162461bcd60e51b815260206004820152603860248201527f4552433732313a20617070726f76652063616c6c6572206973206e6f74206f7760448201527f6e6572206e6f7220617070726f76656420666f7220616c6c00000000000000006064820152608401610727565b61085d8383611483565b505050565b600a546001600160a01b0316331461088c5760405162461bcd60e51b8152600401610727906122c6565b816001600160a01b0316837fa760fe80056c46d089c37a35d9dbe762141a463ae0eb8235522d27ab9595286d836040516108c891815260200190565b60405180910390a3505050565b61085d83838360405180602001604052806000815250610fd1565b600a546001600160a01b0316331461091a5760405162461bcd60e51b8152600401610727906122c6565b816001600160a01b0316837fc5790222911f43ca7d78c4f5ef5cb5a21d7fda4d923d433b80e7db9c295de88a836040516108c891815260200190565b600061096183610cd8565b82106109c35760405162461bcd60e51b815260206004820152602b60248201527f455243373231456e756d657261626c653a206f776e657220696e646578206f7560448201526a74206f6620626f756e647360a81b6064820152608401610727565b506001600160a01b03919091166000908152600660209081526040808320938352929052205490565b600a546001600160a01b03163314610a165760405162461bcd60e51b8152600401610727906122c6565b600b54811180610a265750600181105b15610a5257600b5460405163168a450960e21b8152600160048201526024810191909152604401610727565b610a5c82826114f1565b5050565b600a546001600160a01b03163314610a8a5760405162461bcd60e51b8152600401610727906122c6565b610a938161150b565b50565b6000610aa283836115b2565b9392505050565b6000818152600260205260408120546001600160a01b0316151561061a565b6000610ad360085490565b8210610b365760405162461bcd60e51b815260206004820152602c60248201527f455243373231456e756d657261626c653a20676c6f62616c20696e646578206f60448201526b7574206f6620626f756e647360a01b6064820152608401610727565b60088281548110610b4957610b496122fb565b90600052602060002001549050919050565b600a546001600160a01b03163314610b855760405162461bcd60e51b8152600401610727906122c6565b816001600160a01b03167f782743bed566521eb169ba5186430a0e29079bfd1bdf4fc061bd63b48729846682604051610bc091815260200190565b60405180910390a25050565b600a546001600160a01b03163314610bf65760405162461bcd60e51b8152600401610727906122c6565b604080516060810182528481526020810184905201819052600f92909255601055601155565b600a546001600160a01b03163314610c465760405162461bcd60e51b8152600401610727906122c6565b61085d838383604051806020016040528060008152506116a9565b6000818152600260205260408120546001600160a01b03168061061a5760405162461bcd60e51b815260206004820152602960248201527f4552433732313a206f776e657220717565727920666f72206e6f6e657869737460448201526832b73a103a37b5b2b760b91b6064820152608401610727565b60006001600160a01b038216610d435760405162461bcd60e51b815260206004820152602a60248201527f4552433732313a2062616c616e636520717565727920666f7220746865207a65604482015269726f206164647265737360b01b6064820152608401610727565b506001600160a01b031660009081526003602052604090205490565b600a546001600160a01b03163314610d895760405162461bcd60e51b8152600401610727906122c6565b610d9360006116dc565b565b600a546001600160a01b03163314610dbf5760405162461bcd60e51b8152600401610727906122c6565b6040516323b872dd60e01b81526001600160a01b0384811660048301528381166024830152604482018390527f000000000000000000000000000000000000000000000000000000000000000016906323b872dd906064016020604051808303816000875af1158015610e36573d6000803e3d6000fd5b505050506040513d601f19601f82011682018060405250810190610e5a9190612311565b50505050565b600a546001600160a01b03163314610e8a5760405162461bcd60e51b8152600401610727906122c6565b816001600160a01b0316836001600160a01b0316857fc12a40285e912bef139dd458d6bb29f54ba3b7bb9513d442a8c16a3f0a649eed84604051610ed091815260200190565b60405180910390a450505050565b60606001805461062f9061228b565b610a5c33838361172e565b600a546001600160a01b03163314610f225760405162461bcd60e51b8152600401610727906122c6565b6000838152600d6020526040808220849055516001600160a01b03831691849186917f8da7074ffa2c919782faaf9705c7edfe7f814551a91b91aed83ee2ef5ac6af2791a4505050565b600a546001600160a01b03163314610f965760405162461bcd60e51b8152600401610727906122c6565b6040805160608101825293845260208085019384528482019283526000958652600c9052909320915182555160018201559051600290910155565b610fdb33836115b2565b6110415760405162461bcd60e51b815260206004820152603160248201527f4552433732313a207472616e736665722063616c6c6572206973206e6f74206f6044820152701ddb995c881b9bdc88185c1c1c9bdd9959607a1b6064820152608401610727565b6000611055600a546001600160a01b031690565b604051633f8c2b5b60e01b8152600481018590529091506000906001600160a01b03831690633f8c2b5b906024016020604051808303816000875af11580156110a2573d6000803e3d6000fd5b505050506040513d601f19601f820116820180604052508101906110c69190612311565b905080156110da576110da868686866116a9565b505050505050565b606060006110f8600a546001600160a01b031690565b60405163468bf38960e11b8152600481018590529091506001600160a01b03821690638d17e71290602401600060405180830381865afa158015611140573d6000803e3d6000fd5b505050506040513d6000823e601f3d908101601f19168201604052610aa2919081019061232e565b600a546001600160a01b031633146111925760405162461bcd60e51b8152600401610727906122c6565b806001600160a01b0316837f75a0543aefc16d03b25751bdf0b5a2fbbec05c6436fd60b038d40f5b7d1def83846040516108c891815260200190565b600a546001600160a01b031633146111f85760405162461bcd60e51b8152600401610727906122c6565b60405163a9059cbb60e01b81526001600160a01b038381166004830152602482018390527f0000000000000000000000000000000000000000000000000000000000000000169063a9059cbb906044016020604051808303816000875af1158015611267573d6000803e3d6000fd5b505050506040513d601f19601f8201168201806040525081019061085d9190612311565b600a546001600160a01b031633146112b55760405162461bcd60e51b8152600401610727906122c6565b80600e60008460028111156112cc576112cc6123a5565b60028111156112dd576112dd6123a5565b8152602081019190915260400160002055816002811115611300576113006123a5565b6040518281527f90e64b63a2c952a97e60fcb9bdb464e5e76d2920683504331028687f0cd6643b90602001610bc0565b600a546001600160a01b0316331461135a5760405162461bcd60e51b8152600401610727906122c6565b6001600160a01b0381166113bf5760405162461bcd60e51b815260206004820152602660248201527f4f776e61626c653a206e6577206f776e657220697320746865207a65726f206160448201526564647265737360d01b6064820152608401610727565b610a93816116dc565b600a546001600160a01b031633146113f25760405162461bcd60e51b8152600401610727906122c6565b600b5460408051918252602082018390527fce065be89501ad8aef77e0eb0160264c2d1eb1732a004bcb98735bb0b8102205910160405180910390a1600b55565b60006001600160e01b031982166380ac58cd60e01b148061146457506001600160e01b03198216635b5e139f60e01b145b8061061a57506301ffc9a760e01b6001600160e01b031983161461061a565b600081815260046020526040902080546001600160a01b0319166001600160a01b03841690811790915581906114b882610c61565b6001600160a01b03167f8c5be1e5ebec7d5bd14f71427d1e84f3dd0314c0f7b2291e5b200ac8c7c3b92560405160405180910390a45050565b610a5c8282604051806020016040528060008152506117f5565b600061151682610c61565b905061152481600084611828565b61152f600083611483565b6001600160a01b03811660009081526003602052604081208054600192906115589084906123d1565b909155505060008281526002602052604080822080546001600160a01b0319169055518391906001600160a01b038416907fddf252ad1be2c89b69c2b068fc378daa952ba7f163c4a11628f55a4df523b3ef908390a45050565b6000818152600260205260408120546001600160a01b031661162b5760405162461bcd60e51b815260206004820152602c60248201527f4552433732313a206f70657261746f7220717565727920666f72206e6f6e657860448201526b34b9ba32b73a103a37b5b2b760a11b6064820152608401610727565b600061163683610c61565b9050806001600160a01b0316846001600160a01b031614806116715750836001600160a01b0316611666846106b2565b6001600160a01b0316145b806116a157506001600160a01b0380821660009081526005602090815260408083209388168352929052205460ff165b949350505050565b6116b48484846118e0565b6116c084848484611a87565b610e5a5760405162461bcd60e51b8152600401610727906123e8565b600a80546001600160a01b038381166001600160a01b0319831681179093556040519116919082907f8be0079c531659141344cd1fd0a4f28419497f9722a3daafe3b4186f6b6457e090600090a35050565b816001600160a01b0316836001600160a01b031614156117905760405162461bcd60e51b815260206004820152601960248201527f4552433732313a20617070726f766520746f2063616c6c6572000000000000006044820152606401610727565b6001600160a01b03838116600081815260056020908152604080832094871680845294825291829020805460ff191686151590811790915591519182527f17307eab39ab6107e8899845ad3d59bd9653f200f220920489ca2b5937696c3191016108c8565b6117ff8383611b85565b61180c6000848484611a87565b61085d5760405162461bcd60e51b8152600401610727906123e8565b6001600160a01b0383166118835761187e81600880546000838152600960205260408120829055600182018355919091527ff3f7a9fe364faab93b216da50a3214154f22a0a2b415b23a84c8169e8b636ee30155565b6118a6565b816001600160a01b0316836001600160a01b0316146118a6576118a68382611cd3565b6001600160a01b0382166118bd5761085d81611d70565b826001600160a01b0316826001600160a01b03161461085d5761085d8282611e1f565b826001600160a01b03166118f382610c61565b6001600160a01b0316146119575760405162461bcd60e51b815260206004820152602560248201527f4552433732313a207472616e736665722066726f6d20696e636f72726563742060448201526437bbb732b960d91b6064820152608401610727565b6001600160a01b0382166119b95760405162461bcd60e51b8152602060048201526024808201527f4552433732313a207472616e7366657220746f20746865207a65726f206164646044820152637265737360e01b6064820152608401610727565b6119c4838383611828565b6119cf600082611483565b6001600160a01b03831660009081526003602052604081208054600192906119f89084906123d1565b90915550506001600160a01b0382166000908152600360205260408120805460019290611a2690849061243a565b909155505060008181526002602052604080822080546001600160a01b0319166001600160a01b0386811691821790925591518493918716917fddf252ad1be2c89b69c2b068fc378daa952ba7f163c4a11628f55a4df523b3ef91a4505050565b60006001600160a01b0384163b15611b7a57604051630a85bd0160e11b81526001600160a01b0385169063150b7a0290611acb903390899088908890600401612452565b6020604051808303816000875af1925050508015611b06575060408051601f3d908101601f19168201909252611b039181019061248f565b60015b611b60573d808015611b34576040519150601f19603f3d011682016040523d82523d6000602084013e611b39565b606091505b508051611b585760405162461bcd60e51b8152600401610727906123e8565b805181602001fd5b6001600160e01b031916630a85bd0160e11b1490506116a1565b506001949350505050565b6001600160a01b038216611bdb5760405162461bcd60e51b815260206004820181905260248201527f4552433732313a206d696e7420746f20746865207a65726f20616464726573736044820152606401610727565b6000818152600260205260409020546001600160a01b031615611c405760405162461bcd60e51b815260206004820152601c60248201527f4552433732313a20746f6b656e20616c7265616479206d696e746564000000006044820152606401610727565b611c4c60008383611828565b6001600160a01b0382166000908152600360205260408120805460019290611c7590849061243a565b909155505060008181526002602052604080822080546001600160a01b0319166001600160a01b03861690811790915590518392907fddf252ad1be2c89b69c2b068fc378daa952ba7f163c4a11628f55a4df523b3ef908290a45050565b60006001611ce084610cd8565b611cea91906123d1565b600083815260076020526040902054909150808214611d3d576001600160a01b03841660009081526006602090815260408083208584528252808320548484528184208190558352600790915290208190555b5060009182526007602090815260408084208490556001600160a01b039094168352600681528383209183525290812055565b600854600090611d82906001906123d1565b60008381526009602052604081205460088054939450909284908110611daa57611daa6122fb565b906000526020600020015490508060088381548110611dcb57611dcb6122fb565b6000918252602080832090910192909255828152600990915260408082208490558582528120556008805480611e0357611e036124ac565b6001900381819060005260206000200160009055905550505050565b6000611e2a83610cd8565b6001600160a01b039093166000908152600660209081526040808320868452825280832085905593825260079052919091209190915550565b6001600160e01b031981168114610a9357600080fd5b600060208284031215611e8b57600080fd5b8135610aa281611e63565b60005b83811015611eb1578181015183820152602001611e99565b83811115610e5a5750506000910152565b60008151808452611eda816020860160208601611e96565b601f01601f19169290920160200192915050565b602081526000610aa26020830184611ec2565b600060208284031215611f1357600080fd5b5035919050565b80356001600160a01b0381168114611f3157600080fd5b919050565b60008060408385031215611f4957600080fd5b611f5283611f1a565b946020939093013593505050565b600080600060608486031215611f7557600080fd5b83359250611f8560208501611f1a565b9150604084013590509250925092565b600080600060608486031215611faa57600080fd5b611fb384611f1a565b9250611f8560208501611f1a565b600080600060608486031215611fd657600080fd5b505081359360208301359350604090920135919050565b600060208284031215611fff57600080fd5b610aa282611f1a565b6000806000806080858703121561201e57600080fd5b8435935061202e60208601611f1a565b925061203c60408601611f1a565b9396929550929360600135925050565b8015158114610a9357600080fd5b6000806040838503121561206d57600080fd5b61207683611f1a565b915060208301356120868161204c565b809150509250929050565b6000806000606084860312156120a657600080fd5b83359250602084013591506120bd60408501611f1a565b90509250925092565b600080600080608085870312156120dc57600080fd5b5050823594602084013594506040840135936060013592509050565b634e487b7160e01b600052604160045260246000fd5b604051601f8201601f1916810167ffffffffffffffff81118282101715612137576121376120f8565b604052919050565b600067ffffffffffffffff821115612159576121596120f8565b50601f01601f191660200190565b6000806000806080858703121561217d57600080fd5b61218685611f1a565b935061219460208601611f1a565b925060408501359150606085013567ffffffffffffffff8111156121b757600080fd5b8501601f810187136121c857600080fd5b80356121db6121d68261213f565b61210e565b8181528860208385010111156121f057600080fd5b8160208401602083013760006020838301015280935050505092959194509250565b803560038110611f3157600080fd5b60006020828403121561223357600080fd5b610aa282612212565b6000806040838503121561224f57600080fd5b61225883611f1a565b915061226660208401611f1a565b90509250929050565b6000806040838503121561228257600080fd5b611f5283612212565b600181811c9082168061229f57607f821691505b602082108114156122c057634e487b7160e01b600052602260045260246000fd5b50919050565b6020808252818101527f4f776e61626c653a2063616c6c6572206973206e6f7420746865206f776e6572604082015260600190565b634e487b7160e01b600052603260045260246000fd5b60006020828403121561232357600080fd5b8151610aa28161204c565b60006020828403121561234057600080fd5b815167ffffffffffffffff81111561235757600080fd5b8201601f8101841361236857600080fd5b80516123766121d68261213f565b81815285602083850101111561238b57600080fd5b61239c826020830160208601611e96565b95945050505050565b634e487b7160e01b600052602160045260246000fd5b634e487b7160e01b600052601160045260246000fd5b6000828210156123e3576123e36123bb565b500390565b60208082526032908201527f4552433732313a207472616e7366657220746f206e6f6e20455243373231526560408201527131b2b4bb32b91034b6b83632b6b2b73a32b960711b606082015260800190565b6000821982111561244d5761244d6123bb565b500190565b6001600160a01b038581168252841660208201526040810183905260806060820181905260009061248590830184611ec2565b9695505050505050565b6000602082840312156124a157600080fd5b8151610aa281611e63565b634e487b7160e01b600052603160045260246000fdfea2646970667358221220251cc574edf92360ddc2a28aae1bc25acb30795aed4ae6800f43689ba325d82f64736f6c634300080b003390e64b63a2c952a97e60fcb9bdb464e5e76d2920683504331028687f0cd6643b",
    "linkReferences": {}
  },
  "methodIdentifiers": {
    "_beforeTransferByRegistry(uint256)": "3f8c2b5b",
    "_tokenURI(uint256)": "8d17e712",
    "bid(uint256,uint256)": "598647f8",
    "evaluateOwnership(uint256)": "cf3a421f",
    "getColor(uint256)": "80057b9a",
    "getOwner(uint256)": "c41a360a",
    "getPixel(uint256)": "b4f80eb9",
    "getPixelsByOwner(address,uint256,uint256)": "c0aed4a7",
    "getPrice(uint256)": "e7572230",
    "getTax(uint256)": "099da37f",
    "grantRole(uint8,address)": "5d5664e1",
    "hasRole(uint8,address)": "9e97b8f6",
    "multicall(bytes[])": "ac9650d8",
    "registry()": "7b103999",
    "renounceRole(uint8)": "057c9cb8",
    "setColor(uint256,uint256)": "242d81cd",
    "setPixel(uint256,uint256,uint256,uint256)": "ff1644d8",
    "setPrice(uint256,uint256)": "f7d97577",
    "setTaxConfig(uint8,uint256)": "ecaf822a",
    "setTokenImageURI(string)": "0f920904",
    "setTotalSupply(uint256)": "f7ea7a3d",
    "settleTax(uint256)": "8ec8c504",
    "supportsInterface(bytes4)": "01ffc9a7",
    "tokenImageURI()": "fce58c17",
    "transferRole(uint8,address)": "10718d3b",
    "ubiAvailable(uint256)": "10ac4e74",
    "upgradeTo(address)": "3659cfe6",
    "withdrawTreasury(address)": "f86c9e9a",
    "withdrawUbi(uint256)": "ee1ef07e"
  },
  "id": 37
}